:100000000A128A11D92C00308A000408840A820757
:1000100000343034313432343334343435343634DB
:100020003734383439340034473441344D3445346E
:1000300020344F34563445345234003473346334EE
:0E0040006F347234653420343A342034003486
:10090C007E088A007F08820086240A128A118000E1
:10091C00840A04087D0603190034FF0A0319FE0A31
:10092C008A2CF20083120313071087100715720824
:10093C0088008230F100DD30F000F00BA32CF10BBD
:10094C00A32CA82C8312031307110800F2008312A6
:10095C000313071487100715720888008230F10002
:10096C00DD30F000F00BB82CF10BB82CBD2C831241
:10097C0003130711080003340234133416341F34E4
:10098C000E340A340A340E340E3404341E34043457
:10099C0004341E34003414341434153415341D341A
:1009AC00063404341F34DE01DF01E001E101E20111
:1009BC00E301E401E501E601E701E801E901EA01EF
:1009CC00EB0183135E30FD000430FE00C130FF00EC
:1009DC00463084000A128A118A240A128A11830171
:1009EC000A128A118E2EC0300A128A1197240A120A
:1009FC008A1103300A128A11AC240A128A1181302E
:100A0C000A128A1197240A128A1101300A128A11C9
:100A1C00AC240A128A110630F5000E30F400B03006
:100A2C00F300F30B172DF40B172DF50B172D81304D
:100A3C000A128A1197240A128A1103300A128A1197
:100A4C00AC240A128A11C0300A128A1197240A1295
:100A5C008A1100300A128A11AC240A128A11013050
:100A6C0083120313E8070318E90A0030E9073E2D47
:100A7C00080001300A128A1197240A128A11803058
:100A8C000A128A1197240A128A110C30F300730887
:100A9C00F600F701F8017808803AFF0080307F02F9
:100AAC00031D5A2D09307702031C5D2D5E2D602D20
:100ABC008F2D8F2D7708760784000A128A11032058
:100ACC000A128A110A128A11AC240A128A110830ED
:100ADC00F5009630F4000930F300F30B732DF40B92
:100AEC00732DF50B732D64000130F7070318F80A0A
:100AFC000030F8077808803AFF0080307F02031D31
:100B0C00892D09307702031C8C2D8D2D602D8F2D96
:100B1C008F2D8F2D0800F6007308F400023003109F
:100B2C00F40DFF3E031D952D0310740D403E0A126B
:100B3C008A1197240A128A118230F500DD30F400F4
:100B4C00F40BA62DF50BA62DAB2DF701F8017808AB
:100B5C00803AFF0080307F02031DB62D08307702EB
:100B6C00031CB92DBA2DBC2DDC2DDC2D7708760796
:100B7C00F40074088400831300080A128A11AC2450
:100B8C000A128A110130F7070318F80A0030F80727
:100B9C007808803AFF0080307F02031DD72D083083
:100BAC007702031CDA2DDB2DBC2DDC2D8230F500F9
:100BBC00DD30F400F40BE02DF50BE02DE52D0800F5
:100BCC000130F6007608FA001630F6007608F900C7
:100BDC0082300A128A1197240A128A11FB01FC0135
:100BEC007C08803AFF0080307F02031DFF2D073008
:100BFC007B02031C022E032E052E262E262E7B088E
:100C0C00790784000A128A1103200A128A110A1227
:100C1C008A11AC240A128A110130FB070318FC0A52
:100C2C000030FC077C08803AFF0080307F02031DF7
:100C3C00212E07307B02031C242E252E052E262E5A
:100C4C008A300A128A1197240A128A11831203130A
:100C5C006A087A0784000A128A1103200A128A1180
:100C6C000A128A11AC240A128A118B300A128A11C8
:100C7C0097240A128A118312031368087A078400D6
:100C8C000A128A1103200A128A110A128A11AC2440
:100C9C000A128A110330F8008830F7005630F6003B
:100CAC00F60B562EF70B562EF80B562E83120313FB
:100CBC006908803AFF0080307F02031D672E0B30DD
:100CCC006802031C6A2E6B2E802E83120313E8011C
:100CDC00E9010130EA070318EB0A0030EB07093091
:100CEC006A066B04031D7B2E7C2E8D2EEA01EB0114
:100CFC008D2E8D2E83120313871D852E862E8D2E01
:100D0C000A128A11F9240A128A118D2E8D2E0800CE
:100D1C00831603138701880187152430840046301D
:100D2C0083120313A0000408A1000830A2002008BD
:100D3C00840083130008A300A00A21088400230860
:100D4C008000A10AA20B9D2EF30124300A128A11F5
:100D5C0091250A128A112C3084004E308312031311
:100D6C00A0000408A1000830A2002008840083130E
:100D7C000008A300A00A2108840023088000A10A0F
:100D8C00A20BBB2EF3010314F30D2C300A128A11A3
:100D9C0091250A128A1134308400563083120313C1
:100DAC00A0000408A1000830A200200884008313CE
:100DBC000008A300A00A2108840023088000A10ACF
:100DCC00A20BDB2E0230A0002008F30034300A12F4
:100DDC008A1191250A128A113C3084005E308312EC
:100DEC000313A0000408A1000830A200200884000E
:100DFC0083130008A300A00A2108840023088000A4
:100E0C00A10AA20BFC2E0330A0002008F3003C30FA
:100E1C000A128A1191250A128A1101300A128A11BA
:100E2C0097240A128A110C300A128A1197240A127A
:100E3C008A1138300A128A1197240A128A11C0308A
:100E4C000A128A1197240A128A1100300A128A1186
:100E5C00AC240A128A11CF300A128A1197240A1272
:100E6C008A1102300A128A11AC240A128A118312D6
:100E7C000313C401C5010630A2000E30A100B0302E
:100E8C00A000A00B472FA10B472FA20B472F4E2FD3
:100E9C0083120313871D532F542F5A2F0A128A11B2
:100EAC00F9240A128A115A2F0A128A11E6250A12FB
:100EBC008A1103300A128A11AC240A128A11831285
:100ECC0003136603FF3ACF3E0A128A1197240A12C3
:100EDC008A1103300A128A11AC240A128A110330C7
:100EEC0083120313A2008830A1005630A000A00B7F
:100EFC007D2FA10B7D2FA20B7D2F03300A128A119F
:100F0C00AC240A128A11831203136603FF3ACF3EF4
:100F1C000A128A1197240A128A1102300A128A11B3
:100F2C00AC240A128A11013083120313E60703184A
:100F3C00E70A0030E7076708803AFF0080307F023D
:100F4C00031DAA2F10306602031CAD2FAE2FC32F2A
:100F5C00831203138719B32FB42FC32F0A128A11CC
:100F6C003F250A128A1101300A128A1197240A129B
:100F7C008A118E260A128A11C32F83120313670853
:100F8C00803AFF0080307F02031DCE2F10306602A6
:100F9C00031CD12FD22FEF2FC0300A128A119724A5
:100FAC000A128A1103300A128A11AC240A128A110D
:100FBC0083120313E601E701C0300A128A11972449
:100FCC000A128A1100300A128A11AC240A128A11F0
:100FDC00EF2F83120313871DF42FF52F4E2F0A12B8
:100FEC008A11F9240A128A114E2F4E2F4E2F0A12F3
:040FFC008A1100282E
:02400E007A1F17
:00000001FF
